{
  "contractName": "SecretVault",
  "abi": [
    {
      "inputs": [
        {
          "internalType": "string",
          "name": "_secret",
          "type": "string"
        }
      ],
      "stateMutability": "nonpayable",
      "type": "constructor"
    },
    {
      "inputs": [],
      "name": "getSecret",
      "outputs": [
        {
          "internalType": "string",
          "name": "",
          "type": "string"
        }
      ],
      "stateMutability": "view",
      "type": "function"
    }
  ],
  "bytecode": "0x608060405234801561001057600080fd5b506040516105373803806105378339818101604052810190610032919061015a565b806000908051906020019061004892919061004f565b50506102f6565b82805461005b90610224565b90600052602060002090601f01602090048101928261007d57600085556100c4565b82601f1061009657805160ff19168380011785556100c4565b828001600101855582156100c4579182015b828111156100c35782518255916020019190600101906100a8565b5b5090506100d191906100d5565b5090565b5b808211156100ee5760008160009055506001016100d6565b5090565b6000610105610100846101c0565b61019b565b90508281526020810184848401111561011d57600080fd5b6101288482856101f1565b509392505050565b600082601f83011261014157600080fd5b81516101518482602086016100f2565b91505092915050565b60006020828403121561016c57600080fd5b600082015167ffffffffffffffff81111561018657600080fd5b61019284828501610130565b91505092915050565b60006101a56101b6565b90506101b18282610256565b919050565b6000604051905090565b600067ffffffffffffffff8211156101db576101da6102b6565b5b6101e4826102e5565b9050602081019050919050565b60005b8381101561020f5780820151818401526020810190506101f4565b8381111561021e576000848401525b50505050565b6000600282049050600182168061023c57607f821691505b602082108114156102505761024f610287565b5b50919050565b61025f826102e5565b810181811067ffffffffffffffff8211171561027e5761027d6102b6565b5b80604052505050565b7f4e487b7100000000000000000000000000000000000000000000000000000000600052602260045260246000fd5b7f4e487b7100000000000000000000000000000000000000000000000000000000600052604160045260246000fd5b6000601f19601f8301169050919050565b610232806103056000396000f3fe608060405234801561001057600080fd5b506004361061002b5760003560e01c80635b9fdc3014610030575b600080fd5b61003861004e565b6040516100459190610119565b60405180910390f35b60606000805461005d9061018a565b80601f01602080910402602001604051908101604052809291908181526020018280546100899061018a565b80156100d65780601f106100ab576101008083540402835291602001916100d6565b820191906000526020600020905b8154815290600101906020018083116100b957829003601f168201915b5050505050905090565b60006100eb8261013b565b6100f58185610146565b9350610105818560208601610157565b61010e816101eb565b840191505092915050565b6000602082019050818103600083015261013381846100e0565b905092915050565b600081519050919050565b600082825260208201905092915050565b60005b8381101561017557808201518184015260208101905061015a565b83811115610184576000848401525b50505050565b600060028204905060018216806101a257607f821691505b602082108114156101b6576101b56101bc565b5b50919050565b7f4e487b7100000000000000000000000000000000000000000000000000000000600052602260045260246000fd5b6000601f19601f830116905091905056fea26469706673582212201ba8b3e071e9013bf71a464280a751c867127acd37d57fc6875d0a14fafceb5a64736f6c63430008040033",
  "immutableReferences": {},
  "source": "// SPDX-License-Identifier: MIT\r\n\r\npragma solidity >=0.7.0 <0.9.0;\r\n\r\n/** \r\n * @title My Contract\r\n */\r\n\r\ncontract Ownable {\r\n    address owner;\r\n\r\n    constructor()  {\r\n        owner = msg.sender;\r\n    }\r\n    modifier onlyOwner() {\r\n        require(msg.sender == owner, \"must be owner\");\r\n        _;\r\n    }\r\n}\r\ncontract SecretVault {\r\n    string secret;\r\n    \r\n    constructor(string memory _secret)  {\r\n        secret = _secret;\r\n    }\r\n\r\n    function getSecret() public view returns(string memory){\r\n        return secret;\r\n    }\r\n}\r\ncontract MyContract is Ownable{\r\n    //string secret;\r\n    // address owner;\r\n    address secretVault;\r\n\r\n\r\n    constructor(string memory _secret) public {\r\n        SecretVault _secretVault = new SecretVault(_secret);\r\n        secretVault = address(_secretVault);\r\n        super;\r\n        // owner = msg.sender;\r\n    }\r\n\r\n    // modifier onlyOwner() {\r\n    //     require(msg.sender == owner, \"must be owner\");\r\n    //     _;\r\n    // }\r\n\r\n    function getSecret() public view onlyOwner returns(string memory){\r\n         SecretVault _secretVault = SecretVault(secretVault);\r\n         return _secretVault.getSecret();\r\n        //return secret;\r\n    }\r\n    \r\n}\r\n",
  "sourcePath": "D:/dev/blockchain/proj1/contracts/MyContract.sol",
  "compiler": {
    "name": "solc",
    "version": "0.8.4+commit.c7e474f2.Emscripten.clang"
  },
  "schemaVersion": "3.4.1",
  "updatedAt": "2021-06-02T12:50:56.423Z",
  "devdoc": {
    "kind": "dev",
    "methods": {},
    "version": 1
  },
  "userdoc": {
    "kind": "user",
    "methods": {},
    "version": 1
  }
}